:100000000C942E010C944B010C944B010C944B015D
:100010000C944B010C944B010C944B010C944B0130
:100020000C944B010C944B010C944B010C944B0120
:100030000C944B010C944B010C944B010C944B0110
:100040000C944B010C944B010C944B010C944B0100
:100050000C944B010C944B010C944B010C944B01F0
:100060000C944B010C944B01AED580A83FD30040BB
:100070008D142000A1C8DA1281CFD9F1DB40A4A6EB
:10008000AF000000000000005F0000000700070054
:10009000147F147F14242A7F2A12231308646236E3
:1000A000495522500005030000001C224100004178
:1000B000221C00082A1C2A0808083E0808005030A4
:1000C000000008080808080060600000201008040C
:1000D000023E5149453E00427F400042615149463F
:1000E0002141454B311814127F1027454545393CB5
:1000F0004A494930017109050336494949360649DB
:1001000049291E0036360000005636000008142229
:10011000410014141414140041221408020151095E
:1001200006324979413E7E1111117E7F4949493697
:100130003E414141227F4141221C7F494949417F43
:10014000090909013E4149497A7F0808087F0041B1
:100150007F41002040413F017F081422417F404001
:1001600040407F0204027F7F0408107F3E414141EE
:100170003E7F090909063E4151215E7F0919294642
:10018000464949493101017F01013F4040403F1F3D
:100190002040201F3F4038403F6314081463070885
:1001A0007008076151494543007F4141000204083E
:1001B00010200041417F0004020102044040404001
:1001C00040000102040020545454787F48444438CD
:1001D0003844444420384444487F38545454180820
:1001E0007E0901020C5252523E7F080404780044FA
:1001F0007D40002040443D007F1028440000417FA6
:1002000040007C041804787C080404783844444492
:10021000387C14141408081414187C7C080404088E
:100220004854545420043F4440203C4040207C1C0F
:100230002040201C3C4030403C44281028440C50B6
:1002400050503C4464544C44000836410000007F48
:100250000000004136080008082A1C0811241FBEAF
:10026000CFEFD8E0DEBFCDBF13E0A0E0B1E0E0E427
:10027000F5E102C005900D92AE3EB107D9F714E04A
:10028000AEEEB3E001C01D92A434B107E1F70E94C5
:10029000ED030C949E0A0C94000084EA8093BC0049
:1002A0008091BC0087FFFCCF2091B900287F2830C7
:1002B00019F481E090E0089580E090E0203111F49D
:1002C00081E090E008958093BB0084E88093BC00B7
:1002D0008091BC0087FFFCCF2091B900287F283196
:1002E00019F481E090E0089580E090E0283211F464
:1002F00081E090E008951F93182F0E944D018823FC
:1003000009F44AC080E80E9463018823D1F0812F5C
:100310000E9463018823A9F084E98093BC0088E5EA
:1003200092E020E931E0F9013197F1F70197D9F72F
:100330000E944D01882381F181E80E946301882396
:1003400021F484E98093BC0027C084EC8093BC0036
:100350008091BC0087FFFCCF4091BB0084EC809370
:10036000BC008091BC0087FFFCCF9091BB0084E86B
:100370008093BC008091BC0087FFFCCF8091BB00C4
:1003800084E98093BC00292F30E02C7F3070942FBB
:1003900080E0282B392B02C02FEF3FEFC9011F91BE
:1003A00008951F93182F0E944D0188E70E94630152
:1003B00080E00E946301812F0E94630184E98093A1
:1003C000BC001F9108951F93182F0E944D0188E7CC
:1003D0000E94630180E40E946301812F0E946301F7
:1003E00084E98093BC001F9108951F93162F877096
:1003F000806B0E94D101812F8F700E94D1011295D4
:100400001F70812F80610E94D1011F9108950F9369
:100410001F9300E0802F60E00E94F50110E080E073
:100420000E94E3011F5F1038D1F70F5F083091F78A
:100430001F910F9108950F931F93062F60E00E9464
:10044000F50110E0802F0E94E3011F5F1038D1F703
:100450001F910F91089560E00E941B020895FF9282
:100460000F931F93CF93DF93982FF62E142F842F83
:1004700080528F3508F010E2892F6F2D0E94F50110
:1004800085E01802C0011124EC01CF51D0408C014D
:100490000B5910400F571F4FFE0184910E94E3013A
:1004A0002196C017D107C1F780E00E94E3018F2D8C
:1004B0008A5FDF91CF911F910F91FF9008951F9355
:1004C000CF93DF93182FEA0105C02196812F0E9458
:1004D0002F02682F4881442311F067FFF6CFDF9188
:1004E000CF911F9108950F931F93CF93DF93EC014A
:1004F0008B0177FD02C040E006C08DE28883109535
:1005000001951F4F41E0C8016AE070E00E943C0A7B
:100510009B016436710560F0FE01E40FF11DCB0113
:1005200064E670E00E94280A605D60834F5F03C04C
:100530006A30710580F0FE01E40FF11DC9016AE027
:1005400070E00E94280ACB016AE070E00E94280A4D
:10055000805D80834F5FFE01E40FF11DC9016AE0F9
:1005600070E00E94280A805D8083242F2F5FFE01A7
:10057000E20FF11D8EE280832F5FFE01E20FF11D7D
:10058000C8016AE070E00E943C0A805D80832F5FB2
:10059000C20FD11D1882DF91CF911F910F91089545
:1005A000AF92BF92CF92DF92EF92FF920F931F9381
:1005B00059016A01261737074807590714F027E23F
:1005C0001AC06E157F058007910714F020E013C054
:1005D000621B730B840B950B27E230E040E050E088
:1005E0000E94FD09AE18BF08C00AD10AA6019501F4
:1005F0000E944F0A295D822F1F910F91FF90EF906B
:10060000DF90CF90BF90AF9008951F93982F162F33
:10061000683290F4862F8695869586958E5F692F31
:100620000E94F501177080E890E002C095958795CB
:100630001A95E2F70E94E3011F910895AF92BF92CD
:10064000CF92DF92EF92FF920F931F93CF93DF939E
:10065000C82ED62EC7E0D0E002E0E62EFF2480E8C8
:10066000A82EB12CCE15DF0504F110E020E030E01B
:10067000CE018750482F842F820F8D1540F0C50181
:10068000022E02C0959587950A94E2F7182B2F5FEA
:100690003F4F2830310579F7112339F0802F6C2D29
:1006A0000E94F501812F0E94E30128960F5F073019
:1006B000C9F6DF91CF911F910F91FF90EF90DF90DE
:1006C000CF90BF90AF9008956F927F928F929F923C
:1006D000AF92BF92CF92DF92EF92FF920F931F9350
:1006E000CF93DF93D82EC62EB42EA52E20E8E22E6F
:1006F000F12C862E992490E9692E91E0792E34C050
:100700008D2D0E942B0287018B2D9A2D9C01E901D2
:100710000CC00038110564F417FD04C08D2D602F46
:100720000E942F020A5F1F4F21964881442389F7B8
:100730004A9B04C04B9B02C04F990BC08D2D0E9459
:100740002B028D2D6C2D4B2D5A2D0E945F0281E0C6
:1007500018C08CE291E0F3013197F1F70197D9F7D6
:1007600088EF9FEFE80EF91E8E149F044CF28D2D3A
:100770000E942B028D2D6C2D4B2D5A2D0E945F0255
:1007800080E0DF91CF911F910F91FF90EF90DF906C
:10079000CF90BF90AF909F908F907F906F90089573
:1007A00020E030E040EA5FE00BC0FA013197F1F75A
:1007B0004A9B09C04B9B07C04F9B05C02F5F3F4F13
:1007C0002817390790F384EF91E020E931E0F9012F
:1007D0003197F1F70197D9F708952F923F924F92F1
:1007E0005F926F927F928F929F92AF92BF92CF92C1
:1007F000DF92EF92FF920F931F93DF93CF93CDB7CA
:10080000DEB7E0970FB6F894DEBF0FBECDBF219ADA
:1008100081E8809380008AE08093810010928900B3
:1008200010928800209A289A8AB180678AB98BB181
:100830008F788BB98AB183778AB98BB18C688BB981
:100840008CE08093B8008091B9008C7F8093B900D0
:1008500084E08093BC0088EE93E020E931E0F90168
:100860003197F1F70197D9F708E610E0F801849184
:100870000E94D1010F5F1F4FF0E001381F07B1F751
:1008800000E61AEEC8010197F1F70E944D0180E8D9
:100890000E9463018EEF0E94630184E98093BC0093
:1008A000C8010197F1F70E94070280E06FEF0E94F4
:1008B0001B0280E06EE040E051E00E945F0281E0B8
:1008C0006FEF0E941B0283E06AE040E151E00E946A
:1008D0006403882331F584E068E04DE151E00E9433
:1008E00064038823F1F485E068E04EE251E00E9461
:1008F00064038823B1F486E068E04FE351E00E948E
:100900006403882371F487E06FEF0E941B0287E085
:100910006EE04DE451E00E945F0284EC99E00E9499
:10092000D0030E94070280E06FEF0E941B0280E06C
:100930006EE04DE551E00E945F0281E061E00E94BF
:100940001B0282E064E04DE651E00E9464038823CC
:1009500051F583E064E047E751E00E946403882397
:1009600011F584E068E00E941B0285E064E049E83C
:1009700051E00E9464038823B1F486E064E047E913
:1009800051E00E946403882371F487E06FEF0E94B6
:100990001B0287E06EE04DE451E00E945F0284ECB0
:1009A00099E00E94D0030E94070280E06FEF0E944E
:1009B0001B0280E06EE049EA51E00E945F0281E0A4
:1009C0006FEF0E941B0282E064E049EB51E00E945D
:1009D0006403882331F583E064E042EC51E00E9437
:1009E00064038823F1F484E064E042ED51E00E9466
:1009F00064038823B1F485E064E042EE51E00E9494
:100A00006403882371F487E06FEF0E941B0287E084
:100A10006EE04DE451E00E945F0284EC99E00E9498
:100A2000D0030E94070280E06FEF0E941B0280E06B
:100A30006EE040E051E00E945F0281E06FEF0E94B3
:100A40001B0283E064E142EF51E00E9464038823CB
:100A5000A1F584E068E04DEF51E00E946403882333
:100A600061F585E06EE04DE052E00E94640388236A
:100A700021F587E06FEF0E941B0287E064E149E106
:100A800052E00E945F028CED95E00E94D00384E06A
:100A90000E942B0285E00E942B0284E068E048E27D
:100AA00052E00E945F0285E06EE046E352E00E9461
:100AB0005F0280EB94E00E94D00388EE93E020E98F
:100AC00031E0F9013197F1F70197D9F720E040E9DA
:100AD00051E0289888EE93E0FA013197F1F70197F9
:100AE000D9F7289A8CEB92E0FA013197F1F7019748
:100AF000D9F72F5F233069F780EB94E020E931E0EC
:100B0000F9013197F1F70197D9F7289884EC99E02A
:100B100020E931E0F9013197F1F70197D9F7289AE7
:100B2000882499241CA6DD24D3941BA62AEF30E048
:100B30003EA72DA750E9252E51E0352ECE01019676
:100B400098AB8FA743E1642E712C6C0E7D1E04C000
:100B500093E09CA7DD24D39483EE0E947B018C015B
:100B600085EE0E947B017C01EFEF0F3F1E07A1F095
:100B7000B80180E090E024EA34E440E050E00E94D4
:100B8000FD09BC01992777FD9095892F6D5472411D
:100B9000804090407EA76DA7FFEFEF16FFEFFF06A6
:100BA00031F1B70180E090E024ED30E340E050E027
:100BB0000E94FD09BC01992777FD9095892F685502
:100BC00072408040904097FF05C060E070E080E098
:100BD00090E00CC0693E23E0720720E0820720E02D
:100BE000920724F068EE73E080E090E01B0131E0B2
:100BF00083169104C9F081E08816910428F092E0F0
:100C000089169104B1F521C0E6EC2E16E2E03E060D
:100C100068F580E090E0F6E32F16F1E03F0610F073
:100C200081E090E04C0125C026EC221622E032063D
:100C3000E8F490E03EE1231631E0330608F491E059
:100C400081E09827892E992414C08EE1281681E02E
:100C5000380618F4882499240CC09EEA291692E0DC
:100C6000390638F491E0892E912C03C082E0882E59
:100C7000912C8091EE0390E0FC01EE0FFF1FDF014D
:100C8000A051BC4F2DA53EA52D933C93E65EFB4F96
:100C900031822082019665E170E00E943C0A8093D7
:100CA000EE038091EF03853118F48F5F8093EF039B
:100CB000DD2011F00E9407023CA5323009F4AAC0E1
:100CC000333009F463C1313009F062C280E06FEF64
:100CD0000E941B0280E06AE043E452E00E945F024F
:100CE00081E06FEF0E941B0282E00E942B028114C0
:100CF000910429F081E08816910459F405C082E03E
:100D000062E043E552E009C082E062E048E652E07A
:100D100004C082E062E04DE752E00E945F0283E09F
:100D200068E00E941B0284E00E942B02811491045F
:100D300029F091E08916910459F405C084E062E03D
:100D400042E952E009C084E062E045EA52E004C0B2
:100D500084E062E048EB52E00E945F0285E00E947E
:100D60002B028114910429F0E1E08E16910459F4CC
:100D700005C085E062E04BEC52E009C085E062E02E
:100D80004EED52E004C085E062E041EF52E00E9487
:100D90005F0286E00E942B02C30164E073E00E94C0
:100DA000970ACE014796B1010E947302F3010190A8
:100DB0000020E9F73197E619D301AE0FB11D85E2A6
:100DC0008C93EF5F93012E0F311DF9011082811476
:100DD000910429F031E08316910449F404C0C30161
:100DE00069E073E007C0C30161E173E003C0C301C0
:100DF00069E173E00E948C0A86E062E0A3010E9430
:100E00005F0287E060E80E941B0287E062E041E247
:100E100053E0B6C10E94070280E06FEF0E941B0200
:100E200080E068E048E353E00E945F0282E060E017
:100E300049E453E00E945F0284E060E04CE453E048
:100E40000E945F0286E060E04FE453E00E945F0290
:100E500010E08EE0612F0E9405031F5F1832C9F772
:100E600010E1812F64E10E9405031B5F1338C9F76D
:100E70008091EF038AA7853110F480E002C0809151
:100E8000EE03CC24DD2410E1B12E482E55243AC0C7
:100E9000C601840D951D65E170E00E943C0AE82FB3
:100EA000F0E0EE0FFF1FE051FC4F0190F081E02DCC
:100EB0000894C11CD11CA5E0AA2EAB0C93E8A9167E
:100EC00021F1BF01882777FD8095982F20E030E041
:100ED00040E050E0E4EFEE2EE1E0FE2E012D112D7A
:100EE0000E94D002182F8B2D612F0E941E038B2D84
:100EF0008F5F612F0E941E038B2D8E5F612F0E94DA
:100F00001E03BA2CEAA5CE1618F287E060E80E940C
:100F10001B02CE01019662E573E00E94970AE09100
:100F2000EE03EE2311F4E4E101C0E150F0E0EE0F36
:100F3000FF1FE051FC4F60817181CE0105960E9438
:100F40007302EFA5F8A901900020E9F731972FA5CA
:100F5000E21BA1E0B0E0AC0FBD1FAE0FB11D83E4FA
:100F60008C93EF5F81E090E08C0F9D1F8E0F911DA1
:100F7000FC01108287E062E0AE014F5F5F4F0E948C
:100F80005F0287E064E447E553E0FAC00E9407028D
:100F900080E06FEF0E941B0280E068E045E653E0CE
:100FA0000E945F0282E060E046E753E00E945F0239
:100FB00084E060E049E453E00E945F0286E060E084
:100FC0004FE453E00E945F0210E08EE0612F0E9428
:100FD00005031F5F1832C9F76CE271E080E090E012
:100FE00020E030E040E050E0A8EEEA2EA3E0FA2E48
:100FF000012D112D0E94D002082F10E1812F602FAA
:101000000E940503185F1038C9F764EF71E080E0B3
:1010100090E020E030E040E050E0F8EEEF2EF3E02A
:10102000FF2E012D112D0E94D002082F10E1812FDB
:10103000602F0E9405031B5F1338C9F76CEB72E049
:1010400080E090E020E030E040E050E0E8EEEE2E7E
:10105000E3E0FE2E012D112D0E94D002082F10E199
:10106000812F602F0E9405031D5F1238C9F79091F0
:10107000EF0399A7953110F480E002C08091EE0350
:10108000CC24DD24B0E1BB2E482E552436C0C60149
:10109000840D951D65E170E00E943C0AE82FF0E0A8
:1010A000EE0FFF1FE65EFB4F608171810894C11C4B
:1010B000D11CF5E0AF2EAB0CE3E8AE1609F180E0F1
:1010C00090E020E030E040E050E0E8EEEE2EE3E09B
:1010D000FE2E012D112D0E94D002182F8B2D612F75
:1010E0000E941E038B2D8F5F612F0E941E038B2D8C
:1010F0008E5F612F0E941E03BA2CF9A5CF1638F21D
:1011000087E060E80E941B02CE01019662E573E071
:101110000E94970AE091EE03EE2311F4E4E101C08E
:10112000E150F0E0EE0FFF1FE65EFB4F6081718142
:10113000CE0105960E947302EFA5F8A90190002048
:10114000E9F731972FA5E21BA1E0B0E0AC0FBD1F7E
:10115000AE0FB11D85E28C93EF5F81E090E08C0FC4
:101160009D1F8E0F911DFC01108287E062E0AE0191
:101170004F5F5F4F0E945F0287E06EE349E753E0F5
:101180000E945F0220E0A6EEB0E046E650E0A8C074
:1011900080E06FEF0E941B0280E06AE040E051E0D7
:1011A0000E945F0281E061E00E941B0282E00E94D7
:1011B0002B02C30168E873E00E94970ACE014996AA
:1011C0006DA57EA50E947302F30101900020E9F74E
:1011D0003197E619D301AE0FB11D10E21C93EF5FFA
:1011E000D301AE0FB11D83E48C93EF5F93012E0FFB
:1011F000311DF901108282E062E0A3010E945F02CA
:1012000083E00E942B02C3016FE873E00E94970AFB
:10121000CE014996B1010E947302F30101900020B2
:10122000E9F73197E619D301AE0FB11D1C93EF5FBB
:10123000D301AE0FB11D85E28C93EF5FC3018E0F1A
:10124000911DFC01108283E062E0A3010E945F0215
:1012500084E060E40E941B0285E00E942B0281145E
:10126000910429F091E08916910459F405C085E0B4
:1012700062E046E953E009C085E062E04BEA53E0F2
:1012800004C085E062E040EC53E00E945F0286E02B
:101290000E942B02C1016AE070E00E94280A84E7E4
:1012A000689FC001112464E670E00E94280A062F9E
:1012B00086E066E00E94F50110E0101710F084E06F
:1012C00001C08CE30E94E3011F5F1437B1F787E090
:1012D00060E80E941B0287E062E045ED53E050CFDA
:1012E0008114910429F0E1E08E169104D1F408C034
:1012F0001092890010928800289A5C9A5D980FC01D
:1013000050938900409388008BA56EE10E941C0ACF
:10131000933010F4289801C0289A5C9A5D9A5E98E0
:1013200008C0B0938900A093880028985C9A5D9AC1
:101330005E9AFBA5FF5FFBA7F83C08F01BA64A9945
:1013400019C08CE291E0E0E9F1E03197F1F7019703
:10135000D1F74A990FC04A9BFECF80E991E0E0E9BE
:10136000F1E03197F1F70197D1F72CA52F5F2370AA
:101370002CA7F0CB4B991BC08CE291E0E0E9F1E0A7
:101380003197F1F70197D1F74B9911C04B9BFECFE5
:1013900080E991E0E0E9F1E03197F1F70197D1F7C9
:1013A0003CA5332309F4D4CB31503CA7D3CB4F9980
:1013B00016C08CE291E0E0E9F1E03197F1F7019796
:1013C000D1F74F990CC04F9BFECF80E991E0E0E947
:1013D000F1E03197F1F70197D1F71CA6BBCB88EE6E
:1013E00093E0E0E9F1E03197F1F70197D1F72F5F52
:1013F000243109F075CFDD24AFCB629FD001739FFC
:10140000F001829FE00DF11D649FE00DF11D929FA0
:10141000F00D839FF00D749FF00D659FF00D9927DF
:10142000729FB00DE11DF91F639FB00DE11DF91F03
:10143000BD01CF0111240895991B79E004C0991FC3
:10144000961708F0961B881F7A95C9F7809508951E
:10145000AA1BBB1B51E107C0AA1FBB1FA617B707DA
:1014600010F0A61BB70B881F991F5A95A9F78095F6
:101470009095BC01CD01089597FB092E07260AD04F
:1014800077FD04D0E5DF06D000201AF47095619551
:101490007F4F0895F6F7909581959F4F089597FB9C
:1014A000092E05260ED057FD04D014D00AD0001CFA
:1014B00038F450954095309521953F4F4F4F5F4FF1
:1014C0000895F6F790958095709561957F4F8F4FB1
:1014D0009F4F0895A1E21A2EAA1BBB1BFD010DC050
:1014E000AA1FBB1FEE1FFF1FA217B307E407F507D4
:1014F00020F0A21BB30BE40BF50B661F771F881FB0
:10150000991F1A9469F760957095809590959B0145
:10151000AC01BD01CF010895FB01DC010D9000205D
:10152000E9F7119701900D920020E1F70895FB0172
:10153000DC0101900D920020E1F70895F894FFCFAF
:10154000202053595354454D202033313920200059
:10155000536D6172742054656D7020260048756D5E
:101560006964697479204D6F6E69746F72004154BB
:101570006D65676133323850207C20493243005317
:10158000656E736F723A20414854323000416E7973
:10159000206B657920746F20736B697000202020A8
:1015A0004544554341544F5253202020004C65631D
:1015B00074757265723A004D6973732041696D6587
:1015C0006E204E616A6565620047726F7570204CCF
:1015D00065616465723A004D2E2054616861202077
:1015E00045452D3233333139002047524F55502075
:1015F0004D454D4245525320004D656D62657273F5
:101600003A00416C692020202045452D3233333289
:10161000380041686D6564202045452D32333332F2
:1016200035004661727A616D2045452D3233333283
:10163000360053797374656D2033313900496E6912
:101640007469616C697A696E672E2E2E00506C6524
:101650006173652077616974005374617274696E97
:10166000672075702E2E2E0053797374656D20528D
:101670006561647921004148543230204F6E6C69B5
:101680006E6500202053595354454D20494E464F16
:1016900020200053746174653A204E4F524D414CE6
:1016A000202020202020200053746174653A204DB2
:1016B000454449554D20414C4552542000537461D6
:1016C00074653A204849474820414C4552542121ED
:1016D00020004C45443A2047524E2020796C772018
:1016E00020726564004C45443A2047524E202059F0
:1016F0004C572020726564004C45443A2047524EB6
:101700002020594C5720205245440046616E3A4FE4
:101710004646202042757A3A4F46462020004661D0
:101720006E3A343025202042757A3A494E542020B2
:101730000046616E3A393025202042757A3A4F4E84
:101740002020200048756D3A0020283C33302529A0
:101750000020283C373025290020283E3730252915
:10176000005B3C5D47726170685B4D5D4D61696E09
:101770005B3E5D4D61696E002054454D50204849E7
:1017800053544F5259284329003530003235002038
:1017900030004E6F773A005B3C5D496E666F5B3E92
:1017A0005D48756D002048554D2020484953544FE1
:1017B0005259282529003939005B3C5D54656D700C
:1017C0005B3E5D4D61696E0054656D703A20004866
:1017D000756D3A2020005B4F4B5D20205379737468
:1017E000656D204E6F726D616C20005B21205D2065
:1017F000204D656469756D20416C65727420200010
:101800005B21215D20204849474820414C455254E6
:1018100021212020005B3C5D496E666F205B4D5DA1
:0E1820004D61696E5B3E5D477261706800004D
:00000001FF
