:100000000C942E010C944B010C944B010C944B015D
:100010000C944B010C944B010C944B010C944B0130
:100020000C944B010C944B010C944B010C944B0120
:100030000C944B010C944B010C944B010C944B0110
:100040000C944B010C944B010C944B010C944B0100
:100050000C944B010C944B010C944B010C944B01F0
:100060000C944B010C944B01AED580A83FD30040BB
:100070008D142000A1C8DA1281CFD9F1DB40A4A6EB
:10008000AF000000000000005F0000000700070054
:10009000147F147F14242A7F2A12231308646236E3
:1000A000495522500005030000001C224100004178
:1000B000221C00082A1C2A0808083E0808005030A4
:1000C000000008080808080060600000201008040C
:1000D000023E5149453E00427F400042615149463F
:1000E0002141454B311814127F1027454545393CB5
:1000F0004A494930017109050336494949360649DB
:1001000049291E0036360000005636000008142229
:10011000410014141414140041221408020151095E
:1001200006324979413E7E1111117E7F4949493697
:100130003E414141227F4141221C7F494949417F43
:10014000090909013E4149497A7F0808087F0041B1
:100150007F41002040413F017F081422417F404001
:1001600040407F0204027F7F0408107F3E414141EE
:100170003E7F090909063E4151215E7F0919294642
:10018000464949493101017F01013F4040403F1F3D
:100190002040201F3F4038403F6314081463070885
:1001A0007008076151494543007F4141000204083E
:1001B00010200041417F0004020102044040404001
:1001C00040000102040020545454787F48444438CD
:1001D0003844444420384444487F38545454180820
:1001E0007E0901020C5252523E7F080404780044FA
:1001F0007D40002040443D007F1028440000417FA6
:1002000040007C041804787C080404783844444492
:10021000387C14141408081414187C7C080404088E
:100220004854545420043F4440203C4040207C1C0F
:100230002040201C3C4030403C44281028440C50B6
:1002400050503C4464544C44000836410000007F48
:100250000000004136080008082A1C0811241FBEAF
:10026000CFEFD8E0DEBFCDBF13E0A0E0B1E0E2E623
:10027000F5E102C005900D92A03EB107D9F714E058
:10028000A0EEB3E001C01D92A633B107E1F70E94D2
:1002900097030C94AF0A0C94000084EA8093BC008E
:1002A0008091BC0087FFFCCF2091B900287F2830C7
:1002B00019F481E090E0089580E090E0203111F49D
:1002C00081E090E008958093BB0084E88093BC00B7
:1002D0008091BC0087FFFCCF2091B900287F283196
:1002E00019F481E090E0089580E090E0283211F464
:1002F00081E090E008951F93182F0E944D0188E738
:100300000E94630180E00E946301812F0E946301CB
:1003100084E98093BC001F9108951F93182F0E94B9
:100320004D0188E70E94630180E40E946301812FF0
:100330000E94630184E98093BC001F9108951F937C
:10034000162F8770806B0E947B01812F8F700E9417
:100350007B0112951F70812F80610E947B011F918C
:1003600008950F931F9300E0802F60E00E949F018B
:1003700010E080E00E948D011F5F1038D1F70F5F01
:10038000083091F71F910F9108950F931F93062F37
:1003900060E00E949F0110E0802F0E948D011F5F8E
:1003A0001038D1F71F910F91089560E00E94C501A8
:1003B0000895FF920F931F93CF93DF93982FF62EFC
:1003C000142F842F80528F3508F010E2892F6F2D63
:1003D0000E949F0185E01802C0011124EC01CF5159
:1003E000D0408C010B5910400F571F4FFE018491D4
:1003F0000E948D012196C017D107C1F780E00E94AD
:100400008D018F2D8A5FDF91CF911F910F91FF900A
:1004100008951F93CF93DF93182FEA0105C021960B
:10042000812F0E94D901682F4881442311F067FF72
:10043000F6CFDF91CF911F9108950F931F93CF9324
:10044000DF93EC018B0177FD02C040E006C08DE236
:100450008883109501951F4F41E0C8016AE070E064
:100460000E944D0A9B016436710560F0FE01E40FA5
:10047000F11DCB0164E670E00E94390A605D608383
:100480004F5F03C06A30710580F0FE01E40FF11D7B
:10049000C9016AE070E00E94390ACB016AE070E0AD
:1004A0000E94390A805D80834F5FFE01E40FF11DD9
:1004B000C9016AE070E00E94390A805D8083242FC0
:1004C0002F5FFE01E20FF11D8EE280832F5FFE01A0
:1004D000E20FF11DC8016AE070E00E944D0A805DE4
:1004E00080832F5FC20FD11D1882DF91CF911F91A2
:1004F0000F910895AF92BF92CF92DF92EF92FF9249
:100500000F931F9359016A012617370748075907A8
:1005100014F027E21AC06E157F058007910714F0CA
:1005200020E013C0621B730B840B950B27E230E0B5
:1005300040E050E00E940E0AAE18BF08C00AD10A7F
:10054000A60195010E94600A295D822F1F910F91DB
:10055000FF90EF90DF90CF90BF90AF900895AF9253
:10056000BF92CF92DF92EF92FF920F931F93CF93A0
:10057000DF93C82ED62EC7E0D0E002E0E62EFF249F
:1005800080E8A82EB12CCE15DF0504F110E020E0A4
:1005900030E0CE018750482F842F820F8D1540F018
:1005A000C501022E02C0959587950A94E2F7182B93
:1005B0002F5F3F4F2830310579F7112339F0802F15
:1005C0006C2D0E949F01812F0E948D0128960F5F44
:1005D0000730C9F6DF91CF911F910F91FF90EF90F7
:1005E000DF90CF90BF90AF9008951F93982F162F54
:1005F000683290F4862F8695869586958E5F692F52
:100600000E949F01177080E890E002C09595879541
:100610001A95E2F70E948D011F9108956F927F92C3
:100620008F929F92AF92BF92CF92DF92EF92FF9202
:100630000F931F93CF93DF93D82EC62EB42EA52EE3
:1006400020E8E22EF12C862E992490E9692E91E083
:10065000792E34C08D2D0E94D50187018B2D9A2DC6
:100660009C01E9010CC00038110564F417FD04C0B9
:100670008D2D602F0E94D9010A5F1F4F219648815E
:10068000442389F74A9B04C04B9B02C04F990BC07F
:100690008D2D0E94D5018D2D6C2D4B2D5A2D0E9434
:1006A000090281E018C08CE291E0F3013197F1F783
:1006B0000197D9F788EF9FEFE80EF91E8E149F047B
:1006C0004CF28D2D0E94D5018D2D6C2D4B2D5A2D68
:1006D0000E94090280E0DF91CF911F910F91FF905E
:1006E000EF90DF90CF90BF90AF909F908F907F90D2
:1006F0006F90089520E030E040EA5FE00BC0FA011F
:100700003197F1F74A9B09C04B9B07C04F9B05C02F
:100710002F5F3F4F2817390790F384EF91E020E9CE
:1007200031E0F9013197F1F70197D9F708952F9248
:100730003F924F925F926F927F928F929F92AF9271
:10074000BF92CF92DF92EF92FF920F931F93DF93AE
:10075000CF93CDB7DEB7AB970FB6F894DEBF0FBE21
:10076000CDBF219A81E8809380008AE08093810048
:100770001092890010928800209A289A8AB1806786
:100780008AB98BB18F788BB98AB183778AB98BB1EB
:100790008C688BB98CE08093B8008091B9008C7F15
:1007A0008093B90084E08093BC0088EE93E020E958
:1007B00031E0F9013197F1F70197D9F708E610E038
:1007C000F80184910E947B010F5F1F4FF0E0013818
:1007D0001F07B1F780E991E020E931E0F901319795
:1007E000F1F70197D9F70E944D0180E70E9463015C
:1007F0008EEB0E94630188E00E94630180E00E940A
:10080000630184E98093BC0080E49CE90197F1F7DF
:100810000E94B10180E06FEF0E94C50180E06EE0B0
:1008200040E051E00E94090281E06FEF0E94C501A3
:1008300083E06AE040E151E00E940E038823F1F476
:1008400084E068E04DE151E00E940E038823B1F49A
:1008500085E068E04EE251E00E940E03882371F4C7
:1008600087E06FEF0E94C50187E06EE04FE351E043
:100870000E94090284EC99E00E947A030E94B1016F
:1008800080E06FEF0E94C50180E06EE04FE451E030
:100890000E94090281E061E00E94C50182E064E0FB
:1008A0004FE551E00E940E03882351F583E064E098
:1008B00049E651E00E940E03882311F584E068E0C8
:1008C0000E94C50185E064E04BE751E00E940E0301
:1008D0008823B1F486E064E049E851E00E940E0309
:1008E000882371F487E06FEF0E94C50187E06EE016
:1008F0004FE351E00E94090284EC99E00E947A03E0
:100900000E94B10180E06FEF0E94C50180E06EE0BF
:100910004BE951E00E94090281E06FEF0E94C5019E
:1009200082E064E04BEA51E00E940E03882331F537
:1009300083E064E044EB51E00E940E038823F1F46D
:1009400084E064E044EC51E00E940E038823B1F49B
:1009500085E064E044ED51E00E940E03882371F4C9
:1009600087E06FEF0E94C50187E06EE04FE351E042
:100970000E94090284EC99E00E947A030E94B1016E
:1009800080E06FEF0E94C50180E06EE040E051E042
:100990000E94090281E06FEF0E94C50183E064E1DB
:1009A00044EE51E00E940E038823A1F584E068E044
:1009B0004FEE51E00E940E03882361F585E06EE062
:1009C0004FEF51E00E940E03882321F587E06FEF7F
:1009D0000E94C50187E064E14BE052E00E940902F9
:1009E0008CED95E00E947A0384E00E94D50185E0B9
:1009F0000E94D50184E068E04AE152E00E940902C9
:100A000085E06EE048E252E00E94090280EB94E04B
:100A10000E947A0388EE93E020E931E0F9013197F2
:100A2000F1F70197D9F720E040E951E0289888EEE6
:100A300093E0FA013197F1F70197D9F7289A8CEBF7
:100A400092E0FA013197F1F70197D9F72F5F233040
:100A500069F780EB94E020E931E0F9013197F1F793
:100A60000197D9F7289884EC99E020E931E0F90161
:100A70003197F1F70197D9F7289A882499242224ED
:100A8000BB24B39419A6CE0101969BA78AA793E134
:100A9000492E512C4C0E5D1E04C083E0282EBB2431
:100AA000B3940E944D0180E70E9463018CEA0E948A
:100AB000630183E30E94630180E00E94630184E993
:100AC0008093BC0080E293E0E0E9F1E03197F1F738
:100AD0000197D1F70E944D0181E70E94630184ECE8
:100AE0008093BC008091BC0087FFFCCF8091BB004D
:100AF00084EC8093BC008091BC0087FFFCCF2091E8
:100B0000BB0084EC8093BC008091BC0087FFFCCFCD
:100B10006091BB0084EC8093BC008091BC0087FF97
:100B2000FCCFA090BB0084EC8093BC008091BC0003
:100B300087FFFCCF1091BB0084E88093BC008091BC
:100B4000BC0087FFFCCFE090BB0084E98093BC0031
:100B500070E080E090E004E0660F771F881F991F27
:100B60000A95D1F730E040E050E0BCE0220F331F9F
:100B7000441F551FBA95D1F7622B732B842B952BED
:100B80002A2D22952F7030E040E050E0622B732B2D
:100B9000842B952B28EE33E040E050E00E940E0AB3
:100BA000A4E19695879577956795AA95D1F76B01FE
:100BB000612F70E080E090E0982F872F762F6627D6
:100BC000FF2400E010E06E297F29802B912B2A2D35
:100BD00030E040E050E02F70307040705070A9015C
:100BE00033272227622B732B842B952B20ED37E0A4
:100BF00040E050E00E940E0A54E196958795779563
:100C000067955A95D1F78B01045F114091E08916E1
:100C10009104C9F0E1E08E16910428F0F2E08F16FD
:100C20009104B1F521C026ECC21622E0D20668F587
:100C300080E090E0E6E3CE16E1E0DE0610F081E031
:100C400090E04C0125C0F6ECCF16F2E0DF06E8F4A8
:100C500090E02EE1C21621E0D20608F491E081E096
:100C60009827892E992414C08EE1C81681E0D806F1
:100C700018F4882499240CC09EEAC91692E0D9067B
:100C800038F441E0842E912C03C032E0832E912C65
:100C90008091E00390E0FC01EE0FFF1FDF01AE51F9
:100CA000BC4F0D931C93E45FFB4FD182C082019631
:100CB00065E170E00E944D0A8093E0038091E103BA
:100CC000853118F48F5F8093E103BB2011F00E94FF
:100CD000B101E2E02E1609F4ADC0F3E02F1609F4DD
:100CE00064C121E0221609F061C280E06FEF0E942A
:100CF000C50180E06AE046E352E00E94090281E01B
:100D00006FEF0E94C50182E00E94D5018114910419
:100D100029F081E08816910459F405C082E062E070
:100D200046E452E009C082E062E04BE552E004C0D4
:100D300082E062E040E752E00E94090283E068E05E
:100D40000E94C50184E00E94D5018114910429F01C
:100D500091E08916910459F405C084E062E045E809
:100D600052E009C084E062E048E952E004C084E057
:100D700062E04BEA52E00E94090285E00E94D50140
:100D80008114910429F0E1E08E16910459F405C014
:100D900085E062E04EEB52E009C085E062E041EDA3
:100DA00052E004C085E062E044EE52E00E94090295
:100DB00086E00E94D501C20167EF72E00E94A80A96
:100DC000CE014796B6010E941D02F201019000205B
:100DD000E9F73197E419D201AE0FB11D85E28C938A
:100DE000EF5FD201AE0FB11D1C92E231A8F4811465
:100DF000910429F0F1E08F16910449F404C0C20176
:100E00006CEF72E007C0C20164E073E003C0C2018E
:100E10006CE073E00E949D0A86E062E0A2010E94FD
:100E2000090287E060E80E94C50187E062E044E1D2
:100E300053E0B4C10E94B10180E06FEF0E94C50190
:100E400080E068E04BE253E00E94090282E060E04B
:100E50004CE353E00E94090284E060E04FE353E07A
:100E60000E94090286E060E042E453E00E94090229
:100E700010E08EE0612F0E94F5021F5F1832C9F763
:100E800010E1812F64E10E94F5021B5F1338C9F75E
:100E90003090E10324E1231510F080E002C080913E
:100EA000E003CC24DD2410E1B12E682E77243AC073
:100EB000C601860D971D65E170E00E944D0AE82F7E
:100EC000F0E0EE0FFF1FEE51FC4F0190F081E02D9E
:100ED0000894C11CD11CA5E0AA2EAB0C83E8A8166F
:100EE00019F1BF01882777FD8095982F20E030E029
:100EF00040E050E0E4EFEE2EE1E0FE2E012D112D5A
:100F00000E947A02182F8B2D612F0E94AF028B2D29
:100F10008F5F612F0E94AF028B2D8E5F612F0E9429
:100F2000AF02BA2CC31420F287E060E80E94C5012A
:100F3000CE01019665E473E00E94A80AE091E00307
:100F4000EE2311F4E4E101C0E150F0E0EE0FFF1FE9
:100F5000EE51FC4F60817181CE0105960E941D0209
:100F6000EAA5FBA501900020E9F731979AA5E91BB6
:100F7000A1E0B0E0AC0FBD1FAE0FB11D83E48C93B8
:100F8000EF5F81E090E08C0F9D1F8E0F911DFC01A3
:100F9000108287E062E0AE014F5F5F4F0E9409025E
:100FA00087E064E44AE453E0F9C00E94B10180E0C4
:100FB0006FEF0E94C50180E068E048E553E00E94C1
:100FC000090282E060E049E653E00E94090284E001
:100FD00060E04CE353E00E94090286E060E042E4F6
:100FE00053E00E94090210E08EE0612F0E94F5029A
:100FF0001F5F1832C9F76CE271E080E090E020E0FA
:1010000030E040E050E0A8EEEA2EA3E0FA2E012DF9
:10101000112D0E947A02082F10E1812F602F0E946B
:10102000F502185F1038C9F764EF71E080E090E0D6
:1010300020E030E040E050E0F8EEEF2EF3E0FF2E4D
:10104000012D112D0E947A02082F10E1812F602FAF
:101050000E94F5021B5F1338C9F76CEB72E080E069
:1010600090E020E030E040E050E0E8EEEE2EE3E0FB
:10107000FE2E012D112D0E947A02082F10E1812FE2
:10108000602F0E94F5021D5F1238C9F73090E1030E
:1010900094E1931510F080E002C08091E003CC242D
:1010A000DD24B0E1BB2E682E772436C0C601860D44
:1010B000971D65E170E00E944D0AE82FF0E0EE0F09
:1010C000FF1FE45FFB4F608171810894C11CD11C3C
:1010D000F5E0AF2EAB0CE3E8AE1601F180E090E056
:1010E00020E030E040E050E0E8EEEE2EE3E0FE2EBF
:1010F000012D112D0E947A02182F8B2D612F0E9435
:10110000AF028B2D8F5F612F0E94AF028B2D8E5F00
:10111000612F0E94AF02BA2CC31440F287E060E84E
:101120000E94C501CE01019665E473E00E94A80A01
:10113000E091E003EE2311F4E4E101C0E150F0E0BE
:10114000EE0FFF1FE45FFB4F60817181CE010596BA
:101150000E941D02EAA5FBA501900020E9F7319746
:101160002AA5E21BA1E0B0E0AC0FBD1FAE0FB11D80
:1011700085E28C93EF5F81E090E08C0F9D1F8E0FD6
:10118000911DFC01108287E062E0AE014F5F5F4F6E
:101190000E94090287E06EE34CE653E00E940902D8
:1011A00020E0A6EEB0E046E650E0AEC080E06FEF93
:1011B0000E94C50180E06AE040E051E00E9409021F
:1011C00081E061E00E94C50182E00E94D501C20178
:1011D0006BE773E00E94A80ACE014996B8010E940D
:1011E0001D02F20101900020E9F73197E419D201C4
:1011F000AE0FB11D10E21C93EF5FD201AE0FB11D17
:1012000083E48C93EF5FC2018E0F911DFC0110826D
:1012100082E062E0A2010E94090283E00E94D501FF
:10122000C20162E873E00E94A80ACE014996B601A5
:101230000E941D02F20101900020E9F73197E419A4
:10124000D201AE0FB11D1C93EF5FD201AE0FB11DE5
:1012500085E28C93EF5FC2018E0F911DFC0110821D
:1012600083E062E0A2010E94090284E060E40E943F
:10127000C50185E00E94D5018114910429F091E017
:101280008916910459F405C085E062E049E853E00D
:1012900009C085E062E04EE953E004C085E062E009
:1012A00043EB53E00E94090286E00E94D501E9EE7B
:1012B000CE16E3E0DE0610F064E605C0C6016AE083
:1012C00070E00E94390A84E7689FC001112464E637
:1012D00070E00E94390A062F86E066E00E949F01B6
:1012E00010E0101710F084E001C08CE30E948D0123
:1012F0001F5F1437B1F787E060E80E94C50187E0FF
:1013000062E048EC53E04ACF8114910429F0F1E007
:101310008F169104D1F408C01092890010928800B1
:10132000289A5C9A5D980FC050938900409388007A
:1013300089A56EE10E942D0A933010F4289801C00F
:10134000289A5C9A5D9A5E9808C0B0938900A09331
:10135000880028985C9A5D9A5E9A89A58F5F89A714
:10136000883C08F019A64A9918C08CE291E0E0E99F
:10137000F1E03197F1F70197D1F74A990EC04A9BF6
:10138000FECF80E991E0E0E9F1E03197F1F70197D4
:10139000D1F7239493E0292282CB4B9919C08CE298
:1013A00091E0E0E9F1E03197F1F70197D1F74B993E
:1013B0000FC04B9BFECF80E991E0E0E9F1E031976F
:1013C000F1F70197D1F7222009F467CB2A9467CB74
:1013D0004F9916C08CE291E0E0E9F1E03197F1F726
:1013E0000197D1F74F990CC04F9BFECF80E991E058
:1013F000E0E9F1E03197F1F70197D1F722244FCBE3
:1014000088EE93E0E0E9F1E03197F1F70197D1F749
:101410002F5F243109F078CFBB2443CB629FD001EA
:10142000739FF001829FE00DF11D649FE00DF11D9F
:10143000929FF00D839FF00D749FF00D659FF00D4E
:101440009927729FB00DE11DF91F639FB00DE11D3B
:10145000F91FBD01CF0111240895991B79E004C043
:10146000991F961708F0961B881F7A95C9F78095E3
:101470000895AA1BBB1B51E107C0AA1FBB1FA617DB
:10148000B70710F0A61BB70B881F991F5A95A9F72D
:1014900080959095BC01CD01089597FB092E0726F4
:1014A0000AD077FD04D0E5DF06D000201AF470954D
:1014B00061957F4F0895F6F7909581959F4F089518
:1014C00097FB092E05260ED057FD04D014D00AD064
:1014D000001C38F450954095309521953F4F4F4F63
:1014E0005F4F0895F6F790958095709561957F4FC1
:1014F0008F4F9F4F0895A1E21A2EAA1BBB1BFD011F
:101500000DC0AA1FBB1FEE1FFF1FA217B307E407E2
:10151000F50720F0A21BB30BE40BF50B661F771F3A
:10152000881F991F1A9469F760957095809590951A
:101530009B01AC01BD01CF010895FB01DC010D90C1
:101540000020E9F7119701900D920020E1F708952E
:10155000FB01DC0101900D920020E1F70895F89461
:02156000FFCFBB
:10156200202053595354454D202033313920200037
:10157200536D6172742054656D7020260048756D3C
:101582006964697479204D6F6E69746F7200415499
:101592006D65676133323850207C20493243004107
:1015A2006E79206B657920746F20736B69700020EF
:1015B20020204544554341544F5253202020004C93
:1015C200656374757265723A004D6973732041697F
:1015D2006D656E204E616A6565620047726F757057
:1015E200204C65616465723A004D2E205461686139
:1015F200202045452D3233333139002047524F5593
:1016020050204D454D4245525320004D656D626557
:1016120072733A00416C692020202045452D3233F7
:101622003332380041686D6564202045452D3233E0
:10163200333235004661727A616D2045452D323371
:101642003332360053797374656D20333139004972
:101652006E697469616C697A696E672E2E2E00500C
:101662006C6561736520776169740053746172748B
:10167200696E672075702E2E2E0053797374656D16
:1016820020526561647921004D6F6E69746F7269D1
:101692006E67204F4E00202053595354454D204928
:1016A2004E464F20200053746174653A204E4F52CB
:1016B2004D414C202020202020200053746174656D
:1016C2003A204D454449554D20414C455254200045
:1016D20053746174653A204849474820414C455249
:1016E20054212120004C45443A2047524E20207973
:1016F2006C772020726564004C45443A2047524E74
:101702002020594C572020726564004C45443A20F1
:1017120047524E2020594C572020524544004661E2
:101722006E3A4F4646202042757A3A4F464620206E
:101732000046616E3A343025202042757A3A494E8D
:101742005420200046616E3A393025202042757AB5
:101752003A4F4E2020200048756D3A0020283C3335
:101762003025290020283C373025290020283E3703
:10177200302529005B3C5D47726170685B4D5D4DB1
:1017820061696E5B3E5D4D61696E002054454D504E
:1017920020484953544F52592843290035300032CA
:1017A20035002030004E6F773A005B3C5D496E6633
:1017B2006F5B3E5D48756D002048554D20204849BD
:1017C20053544F5259282529003939005B3C5D5446
:1017D200656D705B3E5D4D61696E0054656D703A7A
:1017E200200048756D3A2020005B4F4B5D2020534E
:1017F200797374656D204E6F726D616C20005B2190
:10180200205D20204D656469756D20416C657274A0
:101812002020005B21215D20204849474820414C7F
:1018220045525421212020005B3C5D496E666F20A9
:101832005B4D5D4D61696E5B3E5D47726170680034
:00000001FF
